:020000040000FA
:100000000301831606309F001F30850000308600F4
:10001000003089008312850186013D200730890068
:1000200005181A2085181A2005191A20051A1A20F1
:1000300000000E280030890001308900051840209A
:100040008518492005195220051A00000230890040
:100050000518432085184C2005195520051A3D2008
:100060000000043089000518462085184F20051926
:100070005820051A00005B2008003F308600080069
:100080000630860008005B30860008004F3086008E
:1000900008006630860008006D30860008007D305C
:1000A000860008000730860008007F3086000800C0
:1000B0006F3086000800FF30A000A100A00B5E2872
:0600C000A10B5E28080000
:0400C60000340034CE
:00000001FF
